{
  "_format": "hh-sol-artifact-1",
  "contractName": "Upload",
  "sourceName": "contracts/Upload.sol",
  "abi": [
    {
      "inputs": [
        {
          "internalType": "address",
          "name": "_user",
          "type": "address"
        },
        {
          "internalType": "string",
          "name": "url",
          "type": "string"
        }
      ],
      "name": "add",
      "outputs": [],
      "stateMutability": "nonpayable",
      "type": "function"
    },
    {
      "inputs": [
        {
          "internalType": "address",
          "name": "user",
          "type": "address"
        }
      ],
      "name": "allow",
      "outputs": [],
      "stateMutability": "nonpayable",
      "type": "function"
    },
    {
      "inputs": [
        {
          "internalType": "address",
          "name": "_user",
          "type": "address"
        }
      ],
      "name": "display",
      "outputs": [
        {
          "internalType": "string[]",
          "name": "",
          "type": "string[]"
        }
      ],
      "stateMutability": "view",
      "type": "function"
    },
    {
      "inputs": [],
      "name": "shareAccess",
      "outputs": [
        {
          "components": [
            {
              "internalType": "address",
              "name": "user",
              "type": "address"
            },
            {
              "internalType": "bool",
              "name": "access",
              "type": "bool"
            }
          ],
          "internalType": "struct Upload.Access[]",
          "name": "",
          "type": "tuple[]"
        }
      ],
      "stateMutability": "view",
      "type": "function"
    }
  ],
  "bytecode": "0x608060405234801561001057600080fd5b50610ff8806100206000396000f3fe608060405234801561001057600080fd5b506004361061004c5760003560e01c806336d6da5514610051578063bc8bef811461006d578063eb39113f1461008b578063ff9913e8146100bb575b600080fd5b61006b60048036038101906100669190610b14565b6100d7565b005b610075610153565b6040516100829190610c78565b60405180910390f35b6100a560048036038101906100a09190610c9a565b61025c565b6040516100b29190610e11565b60405180910390f35b6100d560048036038101906100d09190610c9a565b610472565b005b6000808373ffffffffffffffffffffffffffffffffffffffff1673ffffffffffffffffffffffffffffffffffffffff1681526020019081526020016000208190806001815401808255809150506001900390600052602060002001600090919091909150908051906020019061014e9291906108b9565b505050565b6060600260003373ffffffffffffffffffffffffffffffffffffffff1673ffffffffffffffffffffffffffffffffffffffff168152602001908152602001600020805480602002602001604051908101604052809291908181526020016000905b82821015610253578382906000526020600020016040518060400160405290816000820160009054906101000a900473ffffffffffffffffffffffffffffffffffffffff1673ffffffffffffffffffffffffffffffffffffffff1673ffffffffffffffffffffffffffffffffffffffff1681526020016000820160149054906101000a900460ff161515151581525050815260200190600101906101b4565b50505050905090565b60603373ffffffffffffffffffffffffffffffffffffffff168273ffffffffffffffffffffffffffffffffffffffff16148061031e5750600160008373ffffffffffffffffffffffffffffffffffffffff1673ffffffffffffffffffffffffffffffffffffffff16815260200190815260200160002060003373ffffffffffffffffffffffffffffffffffffffff1673ffffffffffffffffffffffffffffffffffffffff16815260200190815260200160002060009054906101000a900460ff165b61035d576040517f08c379a000000000000000000000000000000000000000000000000000000000815260040161035490610e90565b60405180910390fd5b6000808373ffffffffffffffffffffffffffffffffffffffff1673ffffffffffffffffffffffffffffffffffffffff168152602001908152602001600020805480602002602001604051908101604052809291908181526020016000905b828210156104675783829060005260206000200180546103da90610edf565b80601f016020809104026020016040519081016040528092919081815260200182805461040690610edf565b80156104535780601f1061042857610100808354040283529160200191610453565b820191906000526020600020905b81548152906001019060200180831161043657829003601f168201915b5050505050815260200190600101906103bb565b505050509050919050565b60018060003373ffffffffffffffffffffffffffffffffffffffff1673ffffffffffffffffffffffffffffffffffffffff16815260200190815260200160002060008373ffffffffffffffffffffffffffffffffffffffff1673ffffffffffffffffffffffffffffffffffffffff16815260200190815260200160002060006101000a81548160ff021916908315150217905550600360003373ffffffffffffffffffffffffffffffffffffffff1673ffffffffffffffffffffffffffffffffffffffff16815260200190815260200160002060008273ffffffffffffffffffffffffffffffffffffffff1673ffffffffffffffffffffffffffffffffffffffff16815260200190815260200160002060009054906101000a900460ff16156107255760005b600260003373ffffffffffffffffffffffffffffffffffffffff1673ffffffffffffffffffffffffffffffffffffffff1681526020019081526020016000208054905081101561071f578173ffffffffffffffffffffffffffffffffffffffff16600260003373ffffffffffffffffffffffffffffffffffffffff1673ffffffffffffffffffffffffffffffffffffffff168152602001908152602001600020828154811061064a57610649610f11565b5b9060005260206000200160000160009054906101000a900473ffffffffffffffffffffffffffffffffffffffff1673ffffffffffffffffffffffffffffffffffffffff16141561070c576001600260003373ffffffffffffffffffffffffffffffffffffffff1673ffffffffffffffffffffffffffffffffffffffff16815260200190815260200160002082815481106106e7576106e6610f11565b5b9060005260206000200160000160146101000a81548160ff0219169083151502179055505b808061071790610f79565b915050610598565b506108b6565b600260003373ffffffffffffffffffffffffffffffffffffffff1673ffffffffffffffffffffffffffffffffffffffff16815260200190815260200160002060405180604001604052808373ffffffffffffffffffffffffffffffffffffffff168152602001600115158152509080600181540180825580915050600190039060005260206000200160009091909190915060008201518160000160006101000a81548173ffffffffffffffffffffffffffffffffffffffff021916908373ffffffffffffffffffffffffffffffffffffffff16021790555060208201518160000160146101000a81548160ff02191690831515021790555050506001600360003373ffffffffffffffffffffffffffffffffffffffff1673ffffffffffffffffffffffffffffffffffffffff16815260200190815260200160002060008373ffffffffffffffffffffffffffffffffffffffff1673ffffffffffffffffffffffffffffffffffffffff16815260200190815260200160002060006101000a81548160ff0219169083151502179055505b50565b8280546108c590610edf565b90600052602060002090601f0160209004810192826108e7576000855561092e565b82601f1061090057805160ff191683800117855561092e565b8280016001018555821561092e579182015b8281111561092d578251825591602001919060010190610912565b5b50905061093b919061093f565b5090565b5b80821115610958576000816000905550600101610940565b5090565b6000604051905090565b600080fd5b600080fd5b600073ffffffffffffffffffffffffffffffffffffffff82169050919050565b600061099b82610970565b9050919050565b6109ab81610990565b81146109b657600080fd5b50565b6000813590506109c8816109a2565b92915050565b600080fd5b600080fd5b6000601f19601f8301169050919050565b7f4e487b7100000000000000000000000000000000000000000000000000000000600052604160045260246000fd5b610a21826109d8565b810181811067ffffffffffffffff82111715610a4057610a3f6109e9565b5b80604052505050565b6000610a5361095c565b9050610a5f8282610a18565b919050565b600067ffffffffffffffff821115610a7f57610a7e6109e9565b5b610a88826109d8565b9050602081019050919050565b82818337600083830152505050565b6000610ab7610ab284610a64565b610a49565b905082815260208101848484011115610ad357610ad26109d3565b5b610ade848285610a95565b509392505050565b600082601f830112610afb57610afa6109ce565b5b8135610b0b848260208601610aa4565b91505092915050565b60008060408385031215610b2b57610b2a610966565b5b6000610b39858286016109b9565b925050602083013567ffffffffffffffff811115610b5a57610b5961096b565b5b610b6685828601610ae6565b9150509250929050565b600081519050919050565b600082825260208201905092915050565b6000819050602082019050919050565b610ba581610990565b82525050565b60008115159050919050565b610bc081610bab565b82525050565b604082016000820151610bdc6000850182610b9c565b506020820151610bef6020850182610bb7565b50505050565b6000610c018383610bc6565b60408301905092915050565b6000602082019050919050565b6000610c2582610b70565b610c2f8185610b7b565b9350610c3a83610b8c565b8060005b83811015610c6b578151610c528882610bf5565b9750610c5d83610c0d565b925050600181019050610c3e565b5085935050505092915050565b60006020820190508181036000830152610c928184610c1a565b905092915050565b600060208284031215610cb057610caf610966565b5b6000610cbe848285016109b9565b91505092915050565b600081519050919050565b600082825260208201905092915050565b6000819050602082019050919050565b600081519050919050565b600082825260208201905092915050565b60005b83811015610d2d578082015181840152602081019050610d12565b83811115610d3c576000848401525b50505050565b6000610d4d82610cf3565b610d578185610cfe565b9350610d67818560208601610d0f565b610d70816109d8565b840191505092915050565b6000610d878383610d42565b905092915050565b6000602082019050919050565b6000610da782610cc7565b610db18185610cd2565b935083602082028501610dc385610ce3565b8060005b85811015610dff5784840389528151610de08582610d7b565b9450610deb83610d8f565b925060208a01995050600181019050610dc7565b50829750879550505050505092915050565b60006020820190508181036000830152610e2b8184610d9c565b905092915050565b600082825260208201905092915050565b7f596f7520646f6e27742068617665206163636573730000000000000000000000600082015250565b6000610e7a601583610e33565b9150610e8582610e44565b602082019050919050565b60006020820190508181036000830152610ea981610e6d565b9050919050565b7f4e487b7100000000000000000000000000000000000000000000000000000000600052602260045260246000fd5b60006002820490506001821680610ef757607f821691505b60208210811415610f0b57610f0a610eb0565b5b50919050565b7f4e487b7100000000000000000000000000000000000000000000000000000000600052603260045260246000fd5b7f4e487b7100000000000000000000000000000000000000000000000000000000600052601160045260246000fd5b6000819050919050565b6000610f8482610f6f565b91507fffffffffffffffffffffffffffffffffffffffffffffffffffffffffffffffff821415610fb757610fb6610f40565b5b60018201905091905056fea2646970667358221220a05800fc9527bdb965213e57df4c011bc89515f4e5807b5affe67bee3afefb2364736f6c63430008090033",
  "linkReferences": {},
  "deployedLinkReferences": {}
}